:400000000080002011000000010800000108000008B5044B1A6803F53F5302331A6000F00FFC00BFFA46004010B5054C237833B9044B13B10448AFF300800123237010BD5A
:400040004881FF1F0000000000290000084B10B51BB108490848AFF300800848036803B910BD074B002BFBD0BDE81040184700BF000000004C81FF1F00290000C880FF1FB0
:400080000000000030B5ADF5017D01F039FE032827D8DFE800F02117020E6C46164D0FCD0FC495E80F0007C424F8023B1B0C237017E06C46114D0FCD0FC495E8070084E816
:4000C00007000EE06C460E4D0FCD0FC495E8030044F8040B218004E002460A49684601F0DBFE684601F00EFF82B26946012000F041FD0DF5017D30BD042900002429000027
:40010000402900005829000070B5ADF5007D62B601F0ACFD012001F05DFD974801F02EFE01F0E0FD01F0F2FD0021084600F0C6FC00F0FCFC0028FBD0022000F065FD012236
:400140008E4B1A708E4BDB6813B18E4B1B7813B3022000F0F1FC0028FAD0022000F0F6FC0246894B18808949022000F063FD012000F0E2FC0128FAD1824B1B783BB1844B1F
:4001800018688249834B03EB402001F0B3FE452001F01CFD0AE0522001F018FD7C4B19687C4B03EB4121794801F0A4FE012001F011FD002404E0754B185D01F007FD01342B
:4001C000714B1B88023B9C42F5DB002100914FF4FE7201A801F057FE6F496C4801F09AFE05460BE1664B1B7C032B00F20281DFE803F0022E5A890122614B1A746749284602
:4002000001F06EFE18B96D22654B1A70F1E06549284601F065FE18B97222614B1A70E8E06149284601F05CFE18B964225C4B1A70DFE00026524B1E746C465C4D0FCD0FC41A
:4002400095E80F0007C423704C4B1E70D1E0284601F0DEFD524B1B786D2B08D138B1082805DC0222464B1A74514B1870C1E0642B01D0722B09D1642B01D1052200E003227D
:400280003F4B1A744B4B1860B3E000263C4B1E746C46494D0FCD0FC495E80F0007C42380364B1E70A5E00322354B1A744349284601F016FE18B97322414B1A7099E0414910
:4002C000284601F00DFE18B970223D4B1A7090E03D49284601F004FE48B97322384B1A7000223A4B1A700422254B1A7481E00024234B1C742A463649684601F0CDFD1F4B8B
:400300001C7076E0284601F083FD0028B8BF4042304B1860002403E0285D01F057FC0134284601F0EFFDA042F6D81D4B1B78722B0BD1284A126842B129782D2905D00521A3
:400340000F4B1974214B1A7053E06D2B46D1214B1B68002B42D0642B40DC0421084A11742A782D2A01D12D2100E02B211A4A1170164A13703DE000BF85000000A583FF1F37
:400380006481FF1F9483FF1F8A81FF1F9481FF1FA083FF1FAC83FF1F9029000094290000A883FF1F9C290000A4290000AC290000A483FF1F9883FF1FCC290000EC2900006D
:4003C000A783FF1FF0290000F42900009C83FF1FFC2900008C81FF1F8881FF1F00245A4B1C745A4B1A685A49684601F055FD594B1C705949002001F08DFD054625B1554B89
:400400001B78002B7FF4EEAE4F4B1B7C042B02D0052B6BD08CE0514B1B78732B14BF002301230833DBB25B00DBB24D4A12782B2A08BF0133DBB25B00DBB24A4A1278013A10
:40044000D2B2C2F380010B44DBB25B00D9B2C2F340030B44DBB25B00DBB202F001021344414A13700022414B1A70414B1C7806210AE03E4803785B00DAB244FA01F303F074
:4004800001031344037001390029F2DA394B1B68394A12683949684601F0FEFC334B187801F046FC642001F08BFA2F4B187801F03FFC254BDB681BB12F490A6801320A60A9
:4004C00083B12D4A11682B4A126891420AD1002229490A60013B1C49CB60294B1A70702001F074FB0022184B1A7421E0254B1B78642B04D1244B186801F062FA0FE0722B40
:400500000DD1214B1A68104BDA60194B1A78194B1A600022184B1A600122194B1A700022094B1A74174B1A781849684601F0B4FC684601F0E7FC82B2154B1A80694601204E
:4005400000F018FBFBE500BF6481FF1F8C81FF1F202A0000A583FF1F90290000A783FF1F8881FF1FA483FF1FA683FF1F9583FF1F9C83FF1F9081FF1FA083FF1F402A00001A
:400580009483FF1FA883FF1F9883FF1F7C2A00008A81FF1FFEE700BFF0B40022174611E050F82760F3B226F0FF0608E001EB420511F812406D78A5550132013BDBB2002BF2
:4005C000F4D10137182FEBD9F0BC7047064B1B78DBB203F00701054A11701B09013213704422034B1A707047CF0100496E5800407658004008B50A46002101F044FC08BD34
:4006000038B54FF49C72244B1A80182202331A70062203F27E231A705222A3F580731A701E4B1B78DBB21E4A13704FF4E1621D4B1A8041F25122023B1A80002419250CE0E2
:40064000194B1B7803F0010343EA440404F003044FF4F07001F0B0FB013D0DB1032CEFD115B90320FFF796FF104A4FF4807313800723137000230E490B704820023108709E
:4006800013700532137002220A4B1A700A4A137843F00103137038BD804000400F010049A14600402242004025420040044000400640004001400040A243004008B501F043
:4006C000D7FB08BD38B572B6394A137843F00403137000240CE0374D630019194A0011462A44084691882858FFF784FF0134E4B2062CF0D900240BE02E49A3001819420089
:4007000088188022016BC06AFFF7D8FF0134E4B2002CF1D028494FF09040FFF73DFF274A137843F0020313701032137843F002031370234C237843F040032370A2F5863209
:40074000513A137843F01003137008221D491E48FFF7B4FF08221D491D48FFF7AFFF0A221C491D48FFF7AAFF08221C491C48FFF7A5FF08221B491C48FFF7A0FF0A221B4929
:400780001B48FFF79BFF1B4A137843F008031370194D61232B70FFF733FF81232B70FFF715FF0E2221461548FFF788FF38BD00BFE8460040B42A00006400004803500140EE
:4007C000A0430040300400480251004038040048C251004040040048F05100404C0400481251004054040048225100405C040048605100402243004000480040B04300405C
:4008000008B501F009FB03680C2B00D1FEE7FEE708B5094B1A681044084BC31A802B02DC054B186005E001F0F7FA0C2303604FF0FF32104608BD00BFCC80FF1F4898FF1F56
:4008400008B5104E104D16E029686B68AC68002204E051F8040B43F8040B0432A242F8D1E868002203E0002143F8041B04328242F9D11035013E002EE6D101F0D3FAFFF756
:4008800043FCFEE701000000002D000008B5104A104B1A60104A136843F40073136000230AE0032B03D80D4A52F8231000E00C490C4A42F8231001332F2BF2D90A4B1A78E6
:4008C0000A4B1A70074A0A4B1A60FFF7FBFE08BD0004FA050CED00E014ED00E000000000010800000080FF1FBC760040C080FF1F08ED00E0F8B501F067FA0646384A1378E4
:4009000043F0010313701032137843F0010313700125344B1D700227943B1F7002F5E2521B32137803F07F031370002001F05EF82D4C237803F0F90323702C4A137803F0D1
:40094000DF03137023782B432370284601F04EF8282001F04BF8264B1A7802F07F021A701A7802F0BF021A7023783B432370384601F03CF8237843F00403237000241D4B43
:400980001C7001331C70304601F022FA0721172001F04AF81849172001F032F80721182001F042F81549182001F02AF80721204601F03AF81249204601F022F807212846DC
:4009C00001F032F80F49284601F01AF807210C2001F02AF80C490C2001F012F8F8BD00BFA54300409D6000409443004012600040F85100408460004015110000850F000027
:400A0000B1100000E11000001D11000008B51F4B187000231E4A13701E4A13701E4A13701E4A13701E4A13701E4A13701E4A13701E4B4FF400021A604FF080721A600122A1
:400A40001A6002221A6011B1012906D00BE0184A137803F0FE0313700AE0154A137843F00103137004E0124A137843F0010313700322104B1A708022203B1A70012001F097
:400A80009BF904220C4B1A7008BD00BFB697FF1FAC97FF1FBD97FF1FC497FF1FAD97FF1FB797FF1FD597FF1FAE97FF1F00E100E009600040286000401260004038B504468A
:400AC0000D46064B1B7823B9FFF714FF0122034B1A7029462046FFF799FF38BD7581FF1F00230A4A13700A4A13700A4A13700A4A13700A4A13700A4A13700A4A137003224A
:400B0000094B1A708022203B1A707047AC97FF1FBD97FF1FC497FF1FAD97FF1FB797FF1FD597FF1FAE97FF1F28600040014B1878704700BFC497FF1F00EB40008300024A05
:400B400013445878704700BFD897FF1F431EDBB2072B0BD8064B00011A18185C00F00F00537843EA0020023880B2704700207047FC5F0040431EDBB2072B3CD8F0B407467F
:400B800000EB4004A3001C4C2344DB889BB2C3F500739A4208D900EB400293002344DA8892B2C2F5007292B200EB4004A300124C2344DB7843EA1223104D04012E192B554D
:400BC000D3B2737039B909E0CE5C3D010C4C665501339BB200E000239A42F5D8420002449300054A134400225A705A79D2B20001044B1A54F0BC7047D897FF1FFC5F0040BD
:400C000078600040FE5F0040431EDBB2072B0BD8420002449300054A134400225A705A79D2B20001024B1A54704700BFD897FF1FFE5F004070B5D9B1054614460E46C8B17B
:400C4000082819D8FFF782FFA04203D22846FFF77DFF0446002305E02901094A525CF25401339BB2A342F7D32846FFF7CDFF04E0002402E0002400E00024204670BD00BFBE
:400C8000786000401D4B19781D4A13889BB20B449BB2138000220FE01A494B681B78DBB2194883544B6801334B600132D2B20B889BB2013B9BB20B80124B1B889BB20BB1E0
:400CC000072AE9D90D4B1B78DBB2082B00D05AB10E490B7883F080030B700F210C4B197002210C4B197004E0022309490B7009490B70094B1A70014B1A707047AE97FF1FAC
:400D0000C297FF1FC897FF1F00600040B897FF1FB597FF1FAC97FF1FD497FF1F0222074B1A708022064B1A700F22064B1A700023054A1370054A137001207047AC97FF1FD5
:400D4000B897FF1FB597FF1FAE97FF1FD497FF1F08B5FFF797FF08BD10B4194B197801F00F010239C9B2174A13889BB20B449BB21380002011E0144A5468144B1B5CDBB22C
:400D800023705368013353600130C0B20139C9B213889BB2013B9BB213800B4B1B889BB20BB10029E7D10A4B19700A4A137883F0800313700B22084B1A7010BC704700BF3D
:400DC00029600040C297FF1FC897FF1F00600040D497FF1FB897FF1FB597FF1F0623064A1370064A13708022054B1A700022054B1A700120704700BFAC97FF1FB597FF1F8D
:400E0000B897FF1FD497FF1F064B9B6843B1054B9A6810709A6804490988518000229A60704700BFC897FF1FC297FF1F08B5134B1A78D2B21A701B78DBB213F0800F02D02C
:400E40000F4A137008BD0220FFF7DEFF0D4B1B7803F06003202B05D0402B06D043B900F005FC06E000F0B8FF03E000F093FD00E0002010B90322024B1A7008BD286000400B
:400E8000B597FF1F0060004008B5094B1978094A13889BB20B449BB213800022064B1A700120FFF7B1FF0322044B1A7008BD00BFAE97FF1FC297FF1FAC97FF1FB597FF1F31
:400EC00008B50B4B1B78DBB2042B06D0062B07D0022B0BD1FFF7D8FF08BDFFF73DFF08BD0320FFF791FF0322024B1A7008BD00BFAC97FF1FB597FF1F08B50022044B1A7074
:400F00000120FFF781FF0322024B1A7008BD00BFAC97FF1FB597FF1F08B50B4B1B7813F0FF0F07D0084A137843F0800307490B70002313700022064B1A700120FFF764FFC6
:400F40000322044B1A7008BDB797FF1F08600040AC97FF1FB597FF1F08B5094B1B78DBB2042B06D0062B07D0022B07D1FFF7F0FE08BDFFF7C1FF08BDFFF7CEFF08BD00BF21
:400F8000AC97FF1F08B5284B1B78DBB213F0100F48D013F0800F0CD003F00F03012B16D1FFF744FF214B1B7813F0800F11D1012312E013F0400F03D0FFF7CEFF01230BE007
:400FC00013F0200F07D0FFF77BFF012304E0002302E0002300E0002323B3134B1B7813F0800F1FD1124B1B78124A12781343124A13701278D2B2934214D10C4B1B78DBB2B2
:40100000094A127812F0800F07D1084B1B78DBB2054A1370137803F00F03044A1278D2B29342EAD108BD00BF28600040B597FF1FB897FF1FD497FF1F296000400022064BC1
:401040001A80064B9B682BB1044A916800230B7092685380704700BFC297FF1FC897FF1F08B50F4B1B889BB213B9FFF757FE15E002220C4B1A7000220B4B1A70FFF7DEFF9D
:401080000A4AD179937943EA0123054A128892B2934201D2024A1380FFF7F4FD012008BDC897FF1FAC97FF1FB897FF1F006000400122094B1A700F3B9B7C084B1B7B03F08B
:4010C0000303934204D0054AD37B83F08003D3730122024B5A7370470B600040D897FF1F02220A4B1A700F3B93F82230084B1B7E03F00303012B04D0054AD37E83F0800397
:40110000D3760122024B5A76704700BF0B600040D897FF1F08B5FFF7E3FC08BD08B500F045FC08BD10B401233EE019461A010C242148845403EB4300820020480244527951
:4011400012F0FF0F13D003EB430082001B480244127912F0800F04D01801194A024494700AE01801164A02440820907004E01801134A0244802090704800084482000F48EC
:401180000244D488E4B208010B4901448C71D088C0F30720C871D088C0B20871D288C2F307224A710133DBB2082BBED9FF22054B1A7010BC704700BF70600040D897FF1F52
:4011C000FC5F00400A600040074B1A78074B03EBC2035B681A7C824204D9C000103018444068704700207047B697FF1FEC2A0000F8B5404B1B7813F0FF0F79D03D4B187877
:401200000138C0B2FFF7E0FF047AC2683A4B1878C0B200236AE01178884264D13749095CC9B25578A9425ED1917801F07F01D67806F00306DFF8C8E04D000D44AF000EEB37
:4012400007054FF0000C85F803C092F802C085F804C092F803C00EF807C097882F8192F90250002D0DDA012E01D1072700E00D274E000E44B500224E35446F7101266E700A
:401280000CE0012E01D1052700E009274E000E44B5001B4E35446F7100266E70DFF868E00F010EEB07060125B57001FA05F529448D00134929440D89C5F307250EF80750DB
:4012C0000D89EDB27570CE88F6B20E4D3D44AE71CE88C6F30726EE71CE88F6B22E71C988C1F30721697108320133DBB2A34292D3F8BD00BFC497FF1FAD97FF1FB497FF1F9F
:40130000D897FF1F70600040FC5F0040034B1A78034B03EBC2035868704700BFB697FF1FEC2A000008B5084B18780138C0B2FFF74BFF30B142681279023200EBC203586898
:4013400008BD002008BD00BFC497FF1F2DE9F041002310E0684D5900CA189600AC190022AA55A270E2702281A272627034462C4462710133DBB2082BECD940B90AE000225D
:401380005E49CA545E49CA540133DBB200E00023002BF4D05B4B1B7813F0FF0F00F0A980584B18780138C0B2FFF70EFF4368DB7913F0400F05D0544A137843F001031370A3
:4013C00004E0514A137803F0FE031370057A012464E0C16800235DE08A7802F07F02944255D1264604EB4407BA00434F3A44128992B28F88BA4207D204EB440E4FEA8E0245
:40140000DFF8F4E0724417810A783C4FBA5CD2B24F78BA423BD191F802C0DFF8DCE07200324497000EEB070282F804C0CA780EF80720CA7802F0030291F90270002F13DAE0
:40144000012A02D14FF0070801E04FF00D08DFF8A8E0720002EB060C4FEA8C07774487F8058001267E7012E0012A02D14FF0050801E04FF00908DFF880E0720002EB060C66
:401480004FEA8C07774487F8058000267E7008310133DBB2AB429FD30134E4B2082C98D9C06800220CE0837803F07F0310F8084B03EB43039900104B19448C720132D2B289
:4014C000AA42F0D3FFF72EFF104B1860002101230BE0094D5A00D01884002C44E180228992B2114489B20133DBB2082BF1D9FFF719FEBDE8F08100BFD897FF1FB497FF1F15
:40150000BC97FF1FC497FF1FD597FF1FB097FF1F08B5154B1B7903F07F035A1ED2B2072A20D8590019448A0010490A44917841F0010191700021D170517841F00201517043
:40154000127912F0800F05D01B01094A1A448D23937004E01B01064A1A4489239370FFF73DFC08BD002008BD00600040D897FF1FFC5F0040274B1B7903F07F035A1ED2B285
:40158000072A44D810B5590019448A0022490A44917801F0FE0191700021D1701F4C1801215C01F07F012154517801F0FD015170127912F0800F13D003EB43018A0016494A
:4015C0000A445278D2B2012A04D1224602440C23937019E01B01114A1A440D23937013E003EB43018A000C490A445278D2B2012A05D11B01094A1A440823937004E01B01D2
:40160000064A1A4409239370FFF7E8FB10BD0020704700BF00600040D897FF1FFC5F004010B50E4B1C79E4B20D4B18780138C0B2FFF7CAFD43681B799C4201D9012C0AD82A
:40164000084A135DDBB208490B55044B9B78DBB21355012010BD002010BD00BF00600040C497FF1FB497FF1FBC97FF1F10B59B4B1B78DBB200219A4A118013F0800F00F0A3
:401680009C80964A5278D2B20A2A00F25F81DFE812F058005D015D015D015D015D010B005D0181005D0189008C4BDB78DBB2012B09D1FFF72BFE4268894B5A6012221A8030
:4016C000FFF7CEFC10BD854BDB78DBB2022B13D1824B9878FFF778FD002800F0398142687F4B5A605A68D1785A68927842EA01221A80FFF7B5FC10BD784BDB78DBB2032B4F
:4017000005D01BE00A7811440133DBB201E000237449724A9278D2B2934203D20A7812F0FF0FEFD10B7813F0FF0F00F013810B786B4A13805160FFF793FC10BD00F04CFB1D
:4017400010BD13F0030317D0022B40F0058164490B80624B1B7903F07F0303EB43039A00614B1A449278D2B2604B1A7000225A704B60FFF775FC10BD594902230B805C4B7C
:401780001A78D2B2594B1A7000225A704B60FFF767FC10BD524B01221A80564A5A60FFF75FFC10BD4E4A012313804C4B1B7952490B445360FFF754FC10BD484A5278013A95
:4017C0000A2A00F2CB80DFE812F04C00C9007900C9000B00C900C900C9001300C90030003E4B9B78DBB2454A1370FFF7F7FA10BD3A4B9B7803F0FF041BB1601EC0B2FFF7B7
:40180000E3FC04B110B9002C40F0AA80394B1B78DBB29C4206D0374B1C700120384B1870FFF794FDFFF7DAFA10BDFFF7F9FE002800F09880294A1379DBB21279D2B23149E3
:401840000A70314AD25CD2B22B49CB5CDBB29A4204D001222A4B1A70FFF7CAFCFFF7BEFA10BD03F00303012B17D04BB1022B7BD11A4B9B7813F0FF0F78D1FFF77BFE10BD01
:40188000164B9B78DBB2012B72D1194A137803F0FD031370FFF7A2FA10BD104B1B7913F0FF0F67D10D4B98781B79DBB21749CA5C22EA0002CA54FFF791FA10BD03F003033B
:4018C000012B32D023B3022B56D1044B9B7813F0FF0F53D1FFF71CFE10BD00BF00600040C897FF1F402B0000D897FF1F7881FF1FD597FF1FC497FF1FB497FF1FB797FF1F59
:40190000BD97FF1FAD97FF1FBC97FF1FC097FF1F1D4B9B78DBB2012B32D11C4A137843F002031370FFF75AFA10BD174B1B7913F0FF0F27D1144B98781B79DBB21449CA5CE1
:4019400022EA0002CA54FFF749FA10BD002010BD002010BD002010BD002010BD002010BD002010BD002010BD002010BD002010BD002010BD002010BD002010BD002010BD2C
:40198000002010BD002010BD00600040D597FF1FC097FF1F044B1B7813F0800F01D0024B5B780020704700BF00600040024B1878C0F38010704700BF8F45004001BE7047F3
:4019C00010B5044605E0084B186800F0F5F9A4F50044B4F5004FF6D8034B586800FB04F000F0EAF910BD00BFD080FF1F08B5034B1B7A00FB03F000F0DFF908BDD080FF1F4C
:401A000070B504460E46074B1D681F2802D90020FFF7D4FF04F01F04103455F8240045F8246070BD08ED00E038B504460D46072902D90020FFF7C2FF1F2C02D90020FFF7CA
:401A4000BDFF04F01F0000F1604000F564406D01EDB2057038BD00BF10B50B4C237803F09F032370237803F0F00323702378184340F0100020700120FFF7B8FF237803F022
:401A8000EF03237010BD00BF2051004038B505460E4C237843F020032370237803F0BF0323700020FFF7A2FF237803F0F003237023781D4345F0100525700120FFF796FF1A
:401AC000237803F0EF03237038BD00BF2051004070B5354B1A7802F08002D2B21A7033490A7802F0F00242F00F020A7001310A7802F0F0020A7001310A7802F0F0020A70F2
:401B00001A7802F0DF021A701A7842F040021A704FF4CA760020FFF769FF234D2B7843F010032B700120FFF761FF214B1C78E4B22B7803F0EF032B700020FFF757FF04F0A1
:401B40000804E4B22B7843F010032B700120FFF74DFF2B7803F0EF032B7014B90A20FFF745FF013E0CB1002ED4D10F4A137803F0BF031370137803F08003DBB21370023258
:401B8000137803F0F00313700132137803F0F00343F00F0313700132137803F0F00343F00F03137070BD00BF20510040225100402151004010B50446FFF78AFF2009FFF7AA
:401BC00065FF04F00F00FFF761FF10BD08B5FFF7F1FF08BD10B50446FFF77AFF2009FFF73BFF04F00F00FFF737FF10BD08B52820FFF7E6FE0320FFF72FFF0520FFF7E0FE01
:401C00000320FFF729FF0F20FFF7DAFE0320FFF723FF0120FFF7D4FE0220FFF71DFF0520FFF7CEFE0620FFF7D5FF0E20FFF7D2FF2C20FFF7CFFF0820FFF7CCFF0120FFF732
:401C4000C9FF0C20FFF7C6FF0320FFF7C3FF0520FFF7B6FE08BD00BF08B50C20FFF7BAFF0122014B1A7008BD7A81FF1F08B5054B5B7823B9FFF7BAFF0122024B5A70FFF77D
:401C8000EBFF08BD7A81FF1F7222074B1A70202201331A700622603B1A70472210331A70002251331A7070478B64004010B500F08BF804460A4A137843F0200313700132E6
:401CC000137843F0100313700132137843F01003137000F061F8204600F07AF810BD00BF9B64004008B5054B1B7823B9FFF7CCFF0122024B1A70FFF7D9FF08BD7C81FF1F48
:401D0000014B1878704700BF4F64004008B500F05BF8064B1A7842F001021A701A7802F0FE021A7000F054F808BD00BF9F640040034B1B7813F0040FFAD1024B187070475D
:401D40006D6400404A640040014B1B689864704708ED00E04001C0B2014B1870704700BF02E400E00422014B1A60704700E100E00422014B1A60704780E100E010B50446F3
:401D8000FFF7F6FF2046FFF7DFFF0720FFF7E2FFFFF7E8FF10BD00BF054A137843F0010313701032137843F001031370704700BFA2430040000000000230800803D000BF95
:401DC00001380046FCD17047EFF3108072B6704780F31088704700BF0B4B1B7803F00303012B02D0022B03D00CE0074B1B7909E0054B1B7903F07F0303EB43039A00034BFE
:401E00001A44937A0020704700600040D897FF1F0A22002100F062B9014B1868704700BF4081FF1F0E4B70B51E460E4C0025E41AA410A54204D056F8253098470135F8E755
:401E400000F04CFF084B094C1E46E41AA4100025A54204D056F8253098470135F8E770BDE82C0000E82C0000E82C0000F02C000010B5431E0A44914204D011F8014B03F802
:401E8000014FF8E710BD03460244934202D003F8011BFAE7704700000EB400B54FF402719CB0ADF814106FF00041049107914FF6FF711DAB02900690084853F8042BADF81E
:401EC0001610006802A9019300F01EFA029B00221A701CB05DF804EB03B070474081FF1F10F8012B11F8013B012A28BF9A42F7D0D01A7047034611F8012B03F8012B002ACD
:401F0000F9D17047034613F8012B002AFBD1181A01387047174B2DE9F0411D680646AC6D0F46FCB9502000F0E3F8A8658460AB6D046044601C61DC60AB6D9C615C61AB6DFC
:401F4000DC629C62AB6D5C631C63AB6DDC639C63AB6D5C641C64AB6DDC649C64AB6D1C77AB6D5C62AA6D39463046BDE8F041012300F002B84081FF1FF0B548B9106838B9AA
:401F8000F0BD17F8016B5EB1B542FAD12BB1204604460F4614F8015BF3E714600370F0BD4DB915602846F0BD17F8016BB54207D0002EF9D11C4623460F4613F8015BF3E739
:401FC00015B10021217000E02B461360F0BD00002DE9F0470F4680463F48D0F800903D4615F8014B09EB0400407800F0080000F0FF0608B12F46F2E72D2C03D1BD1C7C7837
:40200000012603E02B2C04BF7C78BD1C13B1102B0AD15BE0302C57D1287800F0DF0058284DD16C7810230235002E14BF4FF0004C6FF0004CBCFBF3FA0027384603FB1ACC57
:4020400009EB040E9EF801E01EF0040F01D0303C0BE01EF0030E1BD0BEF1010F0CBF4FF0370E4FF0570ECEEB0404A34210DDB7F1FF3F0AD0504506D801D1644503DC03FBC0
:402080000040012701E04FF0FF3715F8014BD7E77B1C0CD1002E4FF0220314BF4FF000406FF00040C8F800302AB9BDE8F08706B1404272B107B1691E1160BDE8F0873024E9
:4020C000002BB1D10823AFE70A23ADE7302CA3D0AAE7BDE8F08700BF4481FF1F13460A46014602480068FFF773BF00BF4081FF1F024B0146186800F04FB800BF4081FF1F82
:4021000038B50546002944D051F8043C0C1F002BB8BFE41800F0C1FB1E4A1368114613B96360146030E0A3420DD92268A018834201BF18685B681218226063600C6023E02C
:40214000A24203D813465A68002AF9D118681918A1420BD12168014458188242196013D110685268014419605A600DE002D90C232B6009E021686018824201BF10685268F6
:402180000918216062605C602846BDE8384000F085BB38BD8481FF1F70B5CD1C25F0030508350C2D38BF0C25002D064601DBA94202D90C23336046E000F06FFB234B1C6814
:4021C0001A462146A1B10B685B1B0ED40B2B03D90B60CC18CD501EE08C420BBF63684B681360636018BF0C4615E00C464968E9E7174C23681BB9304600F016FB206029461A
:40220000304600F011FB431C18D0C41C24F00304A0420DD12560304600F040FB04F10B00231D20F00700C31A0ED05A42E25070BD211A304600F0F8FA0130EBD10C233360B5
:40224000304600F02BFB002070BD00BF8481FF1F8081FF1F2DE9F0478E6882469E420C46914698463ED88A8912F4906F3AD02568096902236F1A656905EB450595FBF3F52D
:402280007B1C43449D4238BF1D4653050FD52946FFF782FF064698B13A462169FFF7E8FDA38923F4906343F08003A38113E02A4600F0F5FA064670B921695046FFF720FF2F
:4022C0000C23CAF80030A3894FF0FF3043F04003A381BDE8F08726613E44266046466561ED1BA560464528BF464649463246206800F0B8FAA36800209B1BA36023681E447F
:402300002660BDE8F08700002DE9F04F9DB003938B8980461C060D4616460DD50B695BB94021FFF739FF2860286118B90C23C8F80030CDE040236B610023099320238DF8BB
:402340002930DFF89CB130238DF82A3037463C4614F8013B1BB9B7EB060910D003E0252BF9D02746F3E74B46324629464046FFF771FF013000F0A780099B4B4409933B7891
:40238000002B00F0A08000234FF0FF3204930793059206938DF853301A930126052221784E4800F051FA671C049B38B14B4A3C46801A06FA00F018430490EFE7D90644BF2E
:4023C00020228DF853201A0744BF2B228DF8532022782A2A03D0079A00210A200BE0039A111D12680391002A10DA524243F00200079204900BE027463B780134303B092BE0
:4024000003D800FB02320121F5E701B107923B782E2B1ED17B782A2B0AD1039B02371A1D1B680392002BB8BF4FF0FF33059310E0002319460593781C0A2407463A7801305E
:40244000303A092A03D804FB01210123F5E703B1059103223978224800F0F6F940B14023CBEB000003FA00F0049B013718430490397806221B487E1C8DF8281000F0E4F93D
:4024800088B1194B33B9039B073323F007030833039314E003AB00932A46144B04A94046AFF3008007E003AB00932A460F4B04A9404600F093F8B0F1FF3F824603D0099BB6
:4024C0005344099342E7AB895B0601D4099801E04FF0FF301DB0BDE8F08F00BFA92C0000AF2C0000B32C000000000000552200002DE9F04791461F460A698B680646934260
:40250000B8BF1346C9F8003091F843200C46DDF8208012B10133C9F800302368990642BFD9F800300233C9F80030256815F0060510D104F1190A07E00123524639463046BF
:40254000C04701301AD00135E368D9F800209B1A9D42F1DB94F843302268003318BF012392060FD5E118302081F843005A1C94F845102244023382F8431003E04FF0FF301F
:40258000BDE8F08704F1430239463046C0470130F4D02268D9F80050E36802F00602042A08BF5D1B2269A3680CBF25EAE57500259342C4BF9B1AED184FF000091A344D454E
:4025C00009D00123224639463046C0470130D5D009F10109F3E70020BDE8F0872DE9F04317460A7E85B06E2A984606460C460C9B01F1430E00F0AE8011D8632A22D009D8C2
:40260000002A00F0BB80582A40F0CA8081F84520834955E0642A1ED0692A1CD0C0E0732A00F0B08009D86F2A2ED0702A40F0B8800A6842F020020A603EE0752A24D0782A15
:402640003AD0ADE01A6801F14205111D1960136884F84230A8E021681A6811F0800F02D0111D196008E011F0400F02F10401196002D0B2F9003000E01368002B3CDA2D221B
:402680005B4284F8432037E021681A6811F0800F02D0111D196007E011F0400F02F10401196001D0138800E01368227E5C496F2A14BF0A2208221BE078225A4984F84520E4
:4026C0002268186812F0800F00F104051D6003D1550601D5038800E00368D00744BF42F0200222601BB9226822F0200222601022002084F8430001E049490A226568002D7F
:40270000A56008DB206820F0040020602BB9002D7DD175460CE0002B79D07546B3FBF2F002FB1033CB5C05F8013D03460028F5D1082A0BD12368DA0708D5236962689A426E
:40274000DEBF302305F8013C05F1FF35C5EB0E0323612EE008681A6810F0800F496903D0101D1860136808E010F0400F02F104001860136801D0198000E019600023236101
:40278000754616E01A68111D1960156800216268284600F059F808B1401B6060636804E004F1420584F8422001232361002384F84330CDF800803B4603AA21463046FFF78B
:4027C00097FE013002D14FF0FF3026E023692A4639463046C0470130F5D023689B0710D5002504F1190907E001234A4639463046C0470130E7D00135E368039A9B1A9D425F
:40280000F2DBE068039B9842B8BF184605E00B7804F1420584F842308AE705B0BDE8F083BA2C0000CB2C000038B5064C0023054608462360FDF7ECFF431C02D1236803B1BB
:402840002B6038BD4498FF1F10B5C9B202449042034605D01C7801308C42F8D1184610BD002010BD884210B501EB020301D8421E0BE09842FBD28118D21AD34204D013F830
:40288000014D01F8014DF8E710BD994204D011F8014B02F8014FF8E710BD70477047F8B5074615460E4621B91146BDE8F840FFF773BC1AB9FFF724FC2846F8BD00F015F88A
:4028C00085420ED929463846FFF766FC044650B131462A46FFF7CCFA31463846FFF710FC01E03046F8BD2046F8BD51F8040C0028BEBF091851F8043CC01804387047000066
:4029000000000000504F534954494F4E20434F4E54524F4C20554E415641494C41424C450A0D0000535045454420434F4E54524F4C20554E415641494C41424C450A0D0079
:402940004E4F2053554348204D4F544F52204552524F520A0D00000053756363657373212064617461207761732064656C69766572656420746F20746865205233314A502E
:402980002C202564000000003100000030000000200A0D006D6F746F72000000726570656174000064656C61790000005061727365204572726F723A20554E4B4E4F574E3A
:4029C00020434F4D4D414E44000000005061727365204572726F723A20494E56414C494420415247554D454E5400000073706400706F730073746F700000000050617273BA
:402A000065204572726F723A20554E4B4E4F574E204B4559574F52443A202573000000005061727365204572726F723A20494E56414C49442056414C55453A202564000040
:402A400053756363657373212044617461206265696E672073656E74207269676874206F7665722E206C696E653D2564206E756D6C696E65733D256400000000537563630E
:402A800065737321205468697320636F6D6D616E643A2025632C20776173206576616C756174656420696E207468652050536F432E0A0D0030510040300000000140800ECD
:402AC000000F0140000100140140000800400140000A004C014000020050014020000000800E0140B00300488000000001000000F42A000001000000942B00000000000034
:402B000000000000010000000C2B000001000000742B000002000000302B00000000000000000000000000002C2B0000FF000000000081024000FF00000002024000FF0005
:402B4000040309041003430079007000720065007300730012037500730062005F006500630068006F000A036D00610069006E000000000009022000010103801909040060
:402B80000002FF000003070581024000000705020240000012010002FF000008B404800000000102000143000020202020202020202028282828282020202020202020204F
:402BC000202020202020202020881010101010101010101010101010100404040404040404040410101010101010414141414141010101010101010101010101010101010F
:402C0000010101011010101010104242424242420202020202020202020202020202020202020202101010102000000000000000000000000000000000000000000000001C
:402C40000000000000000000000000000000000000000000000000000000000000000000000000000000000000000000000000000000000000000000000000000000000054
:402C80000000000000000000000000000000000000000000000000000000000000000000000000000000000000232D302B2000686C4C0065666745464700303132333435F6
:402CC00036373839414243444546003031323334353637383961626364656600F8B500BFF8BC08BC9E4670474D0000008D080000F8B500BFF8BC08BC9E46704729000000F6
:402D0000102D0000C880FF1F8000000000170000000000004898FF1F0000E02EC05D00001800000000366E0100000000000000000000000000000000000000000000000073
:402D40000000000000000000A62B00000000000000000000000000000000000000000000000000000000000000000000000000000000000000000000000000000000000082
:402D80000000000000000000E080FF1FA82B0000000000000000000000000000000000000000000000000000000000000000000000000000000000000000000000000000C2
:402DC00000000000000000000000000000000000000000000000000000000000000000000000000000000000000000000000000000000000000000000000000000000000D3
:402E00000000000000000000000000000000000000000000000000000000000000000000000000000000000000000000000000000000000000000000000000000000000092
:402E40000000000000000000000000000000000000000000000000000000000000000000000000000000000000000000000000000000000000000000000000000000000052
:402E80000000000000000000000000000000000000000000000000000000000000000000000000000000000000000000000000000000000000000000000000000000000012
:020000040003F7
:0200000480007A
:4000000001450040035200400364004002030140020901404A0A0140470B01404C0C01404D0D0140160E0140310F01400117014001190140044001400741014002420140E3
:40004000024301400544014004450140034601400347014003480140024C014003500140015101407E02340160107C408B728C388D0FE201E602B410B74007080D010F0699
:400080001501170E1801190C1B032B0C2F033201350F3B203E0440144106450C46B0470E481949FF4AFF4BFF4EF04F44500C580459045A045F0166C06A406B0280018108CE
:4000C000841E85048806890C8A188C1A8D018E049512970C981A991E9A049E049F02A10CA312A408A50EA710A818A901AC10AD01B001B202B30EB510B61CB701B920BAA0C2
:40010000BE05D602D711D804D904DB04DF010404054207150B080D800E0C1602172819041C441D401E101F4020082120240A2580268829102B022D102E442F4030083120EA
:400140003680371439803A043E2A3F804140430248184B10531C5E106C106D106E407420762A77288C4091809310942A9510972099129A049B049D049E229F11A204A302AA
:40018000A434A608A708B002B308C0F0C2C2C4E0CAFCCC76CEFAD009D204D62001030601074009730B0C0D02114F13101402154C1723197F1C041D41210822012504260275
:4001C000290C2C022F333201337C3406350F38203B283E044003470449FF4A074BFF4C404D204EF04F05500854185604580459045A045B045F01604061A862406320830597
:40020000841C85068602870188108E039301941497039B069C109E0CA409A610A702A80CAA11B01FB307BB08D401D604D804D904DB04DF010048020404080B210F121010D8
:4002400013101585184019021D101F04210823102510260427042A042C202D402E2230103118330234803604371139043B013C043D223E4047084C014D4056045703580220
:4002800059A45E02620266806748820287409004918592409301942295109710988099A09A809B089D109F15A101A201A414A60CA702B280B320B480B508B780C027C2A549
:4002C000C4B6CAF2CCF7CEF3D040D68FD8B10103030C050A0601070409030A010B040E010F051B081C01280129032B043601370F3B803E40580459045F01002801200302E8
:400300000422050806080B010C080E481310175519801C141D811E40214023012501276829202C082D502E082F82311035013608374039443B113C083D043F91458047142D
:400340004C014D014E0857408C108E01C077C271C4F2CAF4CCD4CEFFD070D230EE0AEE0A338836403704CCF0830487089F04A640A788E280E640A640A780A640A7800102B2
:4003800002207940C008DC019540B502B620EA0A8D409540E00208080F40C20CAE40AF80EE50AC08AF4000010C010E0100AA00000003600021021A00030300000000000447
:4003C00042200908030000040000600000080030001060086038000060380000600004010338600410030C0000200000000040143502060001E00C0006FFFFFF62A0F0414C
:400400000C00000000000000040404000000000100000000000040020010301000101012000000000000000000000000000000000000FF0000000000004050004000000010
:400440004000000000000000C0000000000B0B0000000000007F7F000000000001000100000000000000000000000000000000000000000000000000000000000000000066
:40048000000000000000000000000000000000000000000000000000000000000000000000000000000000000000000000000000000000000000000000000000000000003C
:4004C00000000000000000000000000000000000000000000000000000000000000000000000000000000000000000000000000000000000000000000000000000000000FC
:4005000000000000000000000000000000000000000000000000000000000000000000000000000000000000000000000000000000000000000000000000000000000000BB
:40054000000000000000000000000000000000000000000000000000000000000000000000000000000000000000000000000000000000000000000000000000000000007B
:0200000490006A
:0400000000004005B7
:0200000490105A
:04000000BC90ACAF55
:0200000490303A
:02000000843248
:0200000490402A
:4000000000000000000000000000000000000000000000000000000000000000000000000000000000000000000000000000000000000000000000000000000000000000C0
:400040000000000000000000000000000000000000000000000000000000000000000000000000000000000000000000000000000000000000000000000000000000000080
:400080000000000000000000000000000000000000000000000000000000000000000000000000000000000000000000000000000000000000000000000000000000000040
:4000C0000000000000000000000000000000000000000000000000000000000000000000000000000000000000000000000000000000000000000000000000000000000000
:0200000490501A
:0C00000000012E12306900012E23B49B79
:00000001FF